:100000000C9418180C9449180C9449180C9449181D
:100010000C9449180C9449180C9449180C944918DC
:100020000C9449180C9449180C9449180C944918CC
:100030000C9449180C94625D0C9449180C9449185E
:100040000C9449180C94F1C00C9449180C9449185C
:100050000C9449180C9449180C94185F0C943A9914
:100060000C9449180C9482A10C94F3430C944918F5
:100070000C9449180C9449180C9449180C9449187C
:100080000C9449180C9449180C9449180C9449186C
:100090000C9449180C9449180C9449180C9449185C
:1000A0000C9449180C9449180C9449180C9449184C
:1000B0000C9449180C9449180C9449180C9449183C
:1000C0000C9449180C9449180C9449180C9449182C
:1000D0000C9449180C9449180C9471510C94325199
:1000E0000C944918C71AE41A151B321B471B711BC5
:1000F000DE1B441CED1C862190213F2267226B22CF
:10010000CA22B527DF222B2352237B23A723FE23DA
:100110000F242324342445245624B527C026B5278C
:10012000CB263B2741276127B4A1BAA1CBA1D6A1F9
:10013000DEA1F3A1E2A1F3A1E6A1EAA1F3A1F0A15E
:10014000ECD9EFD9DED9E2D9E8D926DAF3D9F7D953
:10015000FDD901DA05DA0BDA0FDA13DA26DA19DA61
:100160001DDA21DAC7DDCCDDD1DDDBDDE5DD5EDEEC
:10017000EFDDF7DDFFDD09DE13DE1DDE2CDE36DE12
:100180005EDE40DE4ADE54DE084AD73B3BCE016EDF
:1001900084BCBFFDC12F3D6C74319ABD56833DDADE
:1001A0003D00C77F11BED9E4BB4C3E916BAAAABEED
:1001B000000000803F05A84CCDB2D44EB93836A916
:1001C000020C50B9918688083CA6AAAA2ABE000053
:1001D00000803F004E414E494E495459494E46CD4C
:1001E000CCCC3D0AD7233C17B7D13877CC2B3295EE
:1001F00095E6241FB14F0A000020410000C84200CC
:10020000401C4620BCBE4CCA1B0E5AAEC59D744352
:10021000616E6E6F7420656E7465722073756264B2
:1002200069723A20004D3630300053706563696161
:100230006C204D656E753A2046696C616D656E7413
:100240004368616E676520526573756D650A00537A
:1002500070656369616C204D656E753A2046696C06
:10026000616D656E744368616E676520506175737A
:10027000650A004739310A4731205A2D302E310A9C
:10028000473930005370656369616C204D656E7548
:100290003A205A20446F776E20302E310A004739B9
:1002A000310A4731205A2D302E30320A473930007A
:1002B0005370656369616C204D656E753A205A20F4
:1002C000446F776E20302E30320A004739310A47AA
:1002D00031205A2B302E30320A47393000537065A6
:1002E0006369616C204D656E753A205A2055702007
:1002F000302E30320A004739310A4731205A2B302C
:100300002E310A473930005370656369616C204DA6
:10031000656E753A205A20557020302E310A0047FC
:100320003239205332005370656369616C204D652A
:100330006E753A204E657874204D65736820506F55
:10034000696E740A00473239205331005370656377
:1003500069616C204D656E753A205374617274202A
:100360004D657368204C6576656C696E670A004D53
:1003700031343020533630005370656369616C202E
:100380004D656E753A2050726568656174204265EE
:10039000640A004D353032005370656369616C202A
:1003A0004D656E753A204C6F616420465720446558
:1003B0006661756C74730A004D353030005370659A
:1003C0006369616C204D656E753A205361766520D6
:1003D000454550524F4D0A004D33303320452D31A5
:1003E0002053363020433620553100537065636901
:1003F000616C204D656E753A204175746F2054759F
:100400006E6520486F74626564205069640A004D0F
:1004100031303620533230340A4D333033204530BA
:10042000205332313020433135205531005370652F
:100430006369616C204D656E753A204175746F205B
:1004400054756E6520486F74656E64205049440A87
:10045000004D313038004D313038004D3234004DD0
:100460003234003C5370656369616C5F4D656E7535
:100470003E003C5370656369616C5F4D656E753E0F
:10048000002F002F002F002F2E2E0A002F2E2E00BF
:100490002F2E2E003C5370656369616C5F4D656E55
:1004A000753E0A003C5370656369616C204D656E52
:1004B000753E003C5370656369616C204D656E75D7
:1004C0003E003C46696C616D656E744368616E67A1
:1004D0006520526573756D653E003C46696C616DC3
:1004E000656E744368616E676520526573756D65EE
:1004F0003E003C46696C616D656E744368616E6771
:10050000652050617573653E003C46696C616D65A0
:100510006E744368616E67652050617573653E0057
:100520003C4C6F61642046572044656661756C746D
:10053000733E003C4C6F6164204657204465666101
:10054000756C74733E003C4175746F2054756E6514
:1005500020486F74626564205049443E003C4175F8
:10056000746F2054756E6520486F74626564205006
:1005700049443E003C4175746F2054756E652048B7
:100580006F74656E64205049443E003C4175746F41
:100590002054756E6520486F74656E642050494420
:1005A0003E003C457869743E003C457869743E00E5
:1005B0003C5361766520454550524F4D3E003C53BB
:1005C00061766520454550524F4D3E003C4E657862
:1005D00074204D65736820506F696E743E003C4E08
:1005E000657874204D65736820506F696E743E00A5
:1005F0003C5374617274204D657368204C65766558
:100600006C696E673E003C5374617274204D657373
:1006100068204C6576656C696E673E003C5072657B
:1006200068656174206265643E003C50726568656F
:100630006174206265643E003C5A20446F776E20EE
:10064000302E313E003C5A20446F776E20302E31E0
:100650003E003C5A20446F776E20302E30323E00F0
:100660003C5A20446F776E20302E30323E003C5A88
:1006700020557020302E30323E003C5A20557020DC
:10068000302E30323E003C5A20557020302E313E04
:10069000003C5A20557020302E313E005631313604
:1006A000004A333320004D3530300A4D343230208B
:1006B00053310A4731205A313020463234300A470C
:1006C00031205830205930204636303030004A3200
:1006D00032004A3232004731205A35204632343017
:1006E0000A473120583139302059323020463630CF
:1006F00030300A4731205A302046323430004731FA
:10070000205A3520463234300A47312058313930AA
:1007100020593139302046363030300A4731205A9E
:10072000302046323430004731205A3520463234AA
:10073000300A47312058313930205932302046367E
:100740003030300A4731205A3020463234300047AA
:1007500039310A4731205A313020463234300A4785
:1007600039300A4732380A4732390A47312058327D
:1007700030205932302046363030300A4731205A46
:10078000302046323430004A3032004A313200479D
:1007900031205A3130004F4B004731205A31300060
:1007A000473930004731204525694635303000470C
:1007B0003120452D302E3146256900473120453006
:1007C0002E31462569004731205A256946256900A2
:1007D0004731205A2D302E31462569004731205AA5
:1007E000302E314625690047312059256946256953
:1007F00000473120592D302E3146256900473120E0
:1008000059302E3146256900473120582569462543
:100810006900473120582D302E3146256900473177
:100820002058302E3146256900473931004732388B
:1008300000473238205A00473238205900473238B2
:100840002058004132305620004731205A313000C4
:100850004A3034004A3231004A3230004B494C4C65
:1008600045442E20004A3136004A303400454E447B
:1008700000464E20004A3032003939393A39393988
:10088000004D0048004137562000413656202D2D9E
:100890002D004A30320041365620005A3A20005985
:1008A0003A2000583A200041355600413456200085
:1008B000413356200041325620004131562000413C
:1008C000305620004D3237004D3834004739310A58
:1008D000473120452D312046313830300A473930F4
:1008E000004A3136004D313235204C32004A313821
:1008F000004A3134004A3030004A3031004A313049
:1009000000434F4D4D554E49434154494F4E0044CD
:10091000525952554E004552524F525300494E467D
:100920004F004543484F0047322F473320626164F0
:1009300020706172616D65746572730A00206F6664
:1009400020004D424C2047323920706F696E742070
:1009500000290A0059206F7574206F662072616E3D
:1009600067652028312D00290A0058206F757420F2
:100970006F662072616E67652028312D004D6573AA
:10098000682070726F62696E6720646F6E652E0AF0
:10099000005374617274206D6573682070726F62A9
:1009A000696E672077697468202247323920533195
:1009B000222066697273742E0A004732380A473261
:1009C000392053320053746174653A20004D6573C9
:1009D0006820626564206C6576656C696E67206866
:1009E0006173206E6F20646174612E0A0053206F62
:1009F0007574206F662072616E67652028302D3512
:100A0000292E0A004D65736820706F696E7420632B
:100A1000616E6E6F74206265207265736F6C7665AF
:100A2000640A00456E642066696C65206C697374A5
:100A30000A00426567696E2066696C65206C69739F
:100A4000740A004D31323500286E6F2066696C657E
:100A500029005344207072696E74696E6720627950
:100A6000746520004E6F74205344207072696E7458
:100A7000696E670A0043757272656E742066696CF0
:100A8000653A200046696C652064656C6574656430
:100A90003A0044656C6574696F6E206661696C65C7
:100AA000642C2046696C653A20005072696E74208F
:100AB00074696D653A20006F6E2E0A006F66662EAF
:100AC0000A00473236204465627567200022091DFE
:100AD0000916090F0901096F66660044454255472A
:100AE0003A004D3131332053006F6B002C20002C25
:100AF0002000544845524D414C5F50524F5445439D
:100B000054494F4E004155544F5245504F52545F37
:100B100053445F53544154555300454D4552474546
:100B20004E43595F50415253455200434153455F34
:100B30004C494748545F4252494748544E455353E5
:100B400000544F47474C455F4C4947485453005366
:100B50004F4654574152455F504F574552004255FA
:100B6000494C445F50455243454E54004C45564510
:100B70004C494E475F44415441005A5F50524F42E6
:100B800045004155544F4C4556454C005052494E36
:100B9000545F4A4F420050524F4752455353004111
:100BA00055544F5245504F52545F54454D50005686
:100BB0004F4C554D455452494300454550524F4DB9
:100BC0000053455249414C5F584F4E5F584F46467F
:100BD000004649524D574152455F4E414D453A4DB1
:100BE00061726C696E20312E312E3920284769746C
:100BF0006875622C20646176696472616D69726FD8
:100C000029204D41524C494E2D4149334D5F5645A7
:100C10005253494F4E3A76312E342E3620534F558B
:100C20005243455F434F44455F55524C3A68747494
:100C300070733A2F2F6769746875622E636F6D2F1A
:100C4000646176696472616D69726F2F4D61726C57
:100C5000696E2D4149334D2050524F544F434F4CF4
:100C60005F56455253494F4E3A312E30204D414345
:100C700048494E455F545950453A416E7963756213
:100C80006963206933204D6567612045585452558A
:100C90004445525F434F554E543A312055554944CF
:100CA0003A63656465326132662D343161322D34C8
:100CB0003734382D396231322D633535633632663B
:100CC00033363766660A002F2F200020540020524A
:100CD00000416363656C65726174696F6E3A2050A0
:100CE000005741524E494E4721204C6F77205A20E1
:100CF0004A65726B206D6179206C65616420746F48
:100D000020756E77616E74656420706175736573AC
:100D10002E0A00546F6F206661722066726F6D201C
:100D20007265666572656E636520706F696E740AC0
:100D30000020466C6F773A20000001363726032BDF
:100D4000FFFFFF3C3D382AFFFFFFFF2E303E12FF22
:100D5000FFFFFFFFFFFF0809FF2C071A1C18FFFF0A
:100D6000FF08440A2C4324221E20643A0020693ADA
:100D70000020703A00496E76616C69642065787471
:100D800072756465720A0043290A0061626C6564C9
:100D900020286D696E2074656D702000436F6C644F
:100DA0002065787472756465732061726520002017
:100DB000643A0020693A0020703A004E6F20636167
:100DC0007365206C696768740A00454550524F4D41
:100DD000204F4B0A00205A004475616C20456E6418
:100DE00073746F702041646A7573746D656E7420DE
:100DF000286D6D293A20003F4B2076616C75652087
:100E00006F7574206F662072616E67652028302DC3
:100E10003130292E0A00416476616E6365204B3DB6
:100E200000416374697665204578747275646572F3
:100E30003A2000496E76616C696420657874727539
:100E40006465720A00696E206D6F76655F746F2845
:100E50002920666565645F76616C756520666F72D2
:100E60002058593A002C2065793D0029202D3E203C
:100E70002865783D002C2073793D0020436F6E6E0D
:100E8000656374696E67207769746820766572742B
:100E90006963616C206C696E65202873783D002C55
:100EA0002065793D0029202D3E202865783D002CC5
:100EB0002073793D0020436F6E6E656374696E67C1
:100EC000207769746820686F72697A6F6E74616CDC
:100ED000206C696E65202873783D003F5370656310
:100EE000696669656420582C5920636F6F72646964
:100EF0006E617465206F7574206F6620626F756E09
:100F000064732E0A003F285229657065617420764B
:100F1000616C7565206E6F7420706C6175736962A9
:100F20006C653B206D757374206265206174206C64
:100F30006561737420312E0A003F2852296570655F
:100F40006174206D757374206265207370656369C8
:100F500066696564207768656E206E6F74207573AE
:100F6000696E6720616E204C43442E0A003F537027
:100F700065636966696564206E6F7A7A6C65207452
:100F8000656D7065726174757265206E6F74207026
:100F90006C61757369626C652E0A003F53706563FE
:100FA00069666965642066696C616D656E7420733D
:100FB000697A65206E6F7420706C61757369626CFC
:100FC000652E0A003F537065636966696564207029
:100FD00072696D65206C656E677468206E6F742031
:100FE000706C61757369626C652E0A003F5072699E
:100FF0006D65206C656E677468206D757374206212
:101000006520737065636966696564207768656EDD
:10101000206E6F74207573696E6720616E204C437B
:10102000442E0A003F537065636966696564206EEB
:101030006F7A7A6C652073697A65206E6F742070A0
:101040006C61757369626C652E0A003F496E76614A
:101050006C69642052657472616374696F6E2F5598
:101060006E72657472616374696F6E207261746907
:101070006F2E204D757374206265207769746869DE
:101080006E20356D6D2E0A0020556E72657472618A
:101090006374696F6E20616D6F756E742061757415
:1010A0006F6D61746963616C6C7920736574207411
:1010B0006F20003F53706563696669656420556EF3
:1010C00072657472616374696F6E206C656E6774AB
:1010D00068206E6F7420706C61757369626C652E28
:1010E0000A003F556E72657472616374696F6E2099
:1010F0006C656E677468206D75737420626520730B
:1011000070656369666965642E0A003F53706563A4
:1011100069666965642052657472616374696F6E93
:10112000206C656E677468206E6F7420706C6175DA
:101130007369626C652E0A003F5265747261637454
:10114000696F6E206C656E677468206D75737420AE
:101150006265207370656369666965642E0A003F85
:10116000537065636966696564206C617965722096
:10117000686569676874206E6F7420706C61757340
:1011800069626C652E0A003F537065636966696524
:1011900064206265642074656D7065726174757237
:1011A00065206E6F7420706C61757369626C652068
:1011B0002834302D31343043292E0A00473236206E
:1011C000636F6D6D616E6420737461727465642EFB
:1011D0002057616974696E6720666F722068656167
:1011E0007465722873292E0A0024F4D43050C38EFB
:1011F00020C2A24017828B7011127A910D816CD996
:101200000AA861E108C7586607615143061E4B5D95
:1012100005C145A7041A411104093D9803713931EC
:10122000034036DB0265339102D4305402802E1D18
:1012300002632CEE01752AC501B028A00110278198
:10124000018F2564012B244B01E0223401AC211FC6
:10125000018D200D01801FFC00841EED00971DDF15
:1012600000B81CD200E61BC600201BBC00641AB2EA
:1012700000B219A8000A19A0006A189900D11791A4
:101280000040178B00B516840031167E00B3157927
:10129000003A157300C7146F0058146A00EE136605
:1012A000008813630025135E00C7125B006C1257A1
:1012B0000015125400C111510070114F0021114B43
:1012C00000D61049008D104700461044000210421D
:1012D00000C00F4000800F3E00420F3C00060F3B55
:1012E00000CB0E3800930E37005C0E3500270E340D
:1012F00000F30D3200C10D3100900D3000600D2E55
:1013000000320D2D00050D2C00D90C2B00AE0C2940
:1013100000850C29005C0C2700350C27000E0C26DC
:1013200000E80B2400C40B2400A00B23007D0B233A
:10133000005A0B2100390B2100180B2000F80A1F5E
:1013400000D90A1E00BB0A1E009D0A1D00800A1D4E
:1013500000630A1C00470A1B002C0A1B00110A1A12
:1013600000F7091A00DD091900C4091900AB0919B1
:1013700000920917007B091800630917004C091631
:101380000036091600200916000A091500F508158F
:1013900000E0081400CC081400B8081400A40814D5
:1013A00000900813007D0812006B08130058081203
:1013B0000046081200340811002308110012081119
:1013C0000001081100F0071000E0071000D007101E
:1013D00000C0071000B0070F00A107100091070E12
:1013E0000083070F0074070F0065070E0057070EF4
:1013F0000049070E003B070D002E070E0020070DC9
:101400000013070D0006070D00F9060C00ED060D90
:1014100000E0060C00D4060C00C8060C00BC060C4C
:1014200000B0060C00A4060B0099060C008D060BFC
:101430000082060B0077060B006C060B0061060AA3
:101440000057060B004C060A0042060A0038060A3E
:10145000002E060A0024060A001A060A00100609D1
:101460000007060A00FD050900F4050900EB05095F
:1014700000E2050900D9050900D0050900C70509E2
:1014800000BE050900B5050800AD050800A5050961
:10149000009C050800940508008C050800840508D8
:1014A000007C050800740508006C05070065050848
:1014B000005D050700560508004E050700470507B3
:1014C000004005080038050700310507002A050718
:1014D00000230507001C050600160507000F050779
:1014E000000805060002050700FB040600F50407D6
:1014F00000EE040600E8040600E2040700DB040630
:1015000000D5040600CF040600C9040600C3040683
:1015100000BD040600B7040600B1040500AC0406D3
:1015200000A6040600A00405009B0406009504051F
:1015300000900406008A0405008504050080040666
:10154000007A04050075040500700405006B0405AD
:101550000066040500610405005C040500570405ED
:1015600000520405004D040500480405004304052D
:10157000003E0404003A040500350405003004046C
:10158000002C04050027040400230405001E0404A5
:10159000001A04040016040500110404000D0404DC
:1015A00000090405000404040000040400FC030412
:1015B00000F8030400F4030400F0030400EC030447
:1015C00000E8030400E4030400E0030400DC030477
:1015D00000D8030400D4030400D0030400CC0304A7
:1015E00000C8030300C503030024F404D9201BC46E
:1015F0000C5C0E9804C4095F0265077101F405F9DB
:1016000000FB04B30048048700C103690058035578
:101610000003034500BE023A008402310053022A4F
:10162000002902250004022000E4011C00C8011961
:1016300000AF01170098011400840113007101101C
:10164000006101100051010E0043010D0036010B35
:10165000002B010B0020010B00150109000C0109F2
:101660000003010800FB000800F3000800EB00077E
:1016700000E4000600DE000600D8000600D20006E6
:1016800000CC000500C7000500C2000500BD000435
:1016900000B9000400B5000400B1000400AD00046E
:1016A00000A9000400A5000300A20003009F00049D
:1016B000009B0003009800030095000200930003C4
:1016C00000900003008D0002008B000300880002E0
:1016D000008600020084000300810002007F0002F7
:1016E000007D0002007B000200790002007700010B
:1016F0000076000200740002007200010071000216
:10170000006F0002006D0001006C0002006A000121
:101710000069000200670001006600010065000129
:10172000006400020062000100610001006000012D
:10173000005F0002005D0001005C0001005B000131
:10174000005A000100590001005800010057000133
:101750000056000100550001005400010053000034
:10176000005300010052000100510001005000012F
:10177000004F0001004E0000004E0001004D00012E
:10178000004C0001004B0000004B0001004A00012A
:101790000049000100480000004800010047000126
:1017A0000046000000460001004500000045000121
:1017B000004400010043000000430001004200001B
:1017C0000042000100410000004100010040000112
:1017D000003F0000003F0001003E0000003E00010D
:1017E000003D0000003D0001003C0000003C000006
:1017F000003C0001003B0000003B0001003A0000FB
:10180000003A0001003900000039000100380000F2
:1018100000380000003800010037000000370001E8
:1018200000360000003600000036000100350000E0
:1018300000350000003500010034000000340000D5
:1018400000340001003300000033000000330001C9
:1018500000320000003200000032000100310000C0
:1018600000310000003100010030000000300000B5
:1018700000300001002F0000002F0000002F0000AA
:10188000002F0001002E0000002E0000002E00019D
:10189000002D0000002D0000002D0000002D000193
:1018A000002C0000002C0000002C0000002C000187
:1018B000002B0000002B0000002B0000002B00017B
:1018C000002A0000002A0000002A0000002A00016F
:1018D0000029000000290000002900000029000064
:1018E0000029000100280000002800000028000056
:1018F0000028000000280001002700000027000049
:10190000002700000027000000270001002600003B
:10191000002600000026000000260000002600012E
:101920000025000000250000002500000025000023
:101930000025000000250001002400000024000014
:101940000024000000240000002400010023000007
:1019500000230000002300000023000000230000FB
:1019600000230000002300010022000000220000EC
:1019700000220000002200000022000000220001DE
:1019800000210000002100000021000000210000D3
:1019900000210000002100000021000100200000C3
:1019A00000200000002000000020000000200000B7
:1019B000002000000020000000200001001F0000A7
:1019C000001F0000001F0000001F0000001F00009B
:1019D000001F0000001F0001001E0000001E00008C
:1019E000001E0000001E000000232C0000B8220092
:1019F00000561800003A0F0000B8080000B10400BB
:101A000000710200003E0100001000C90210012C0C
:101A1000014001220170011801B0010E01F0010422
:101A2000015002FA00B002F0003003E600D003DCFF
:101A3000009004D2007005C800A006BE000008B4E3
:101A400000B009AA00D00BA000600E960060118CB7
:101A5000000015820020197800C01D6E00A02264CD
:101A600000B0275A00902C500000314600E0343C72
:101A70000010383200903A2800603C1E00A03D144F
:101A800000803E0A00203F00002CFFFFFFFFFF0008
:101A900001010101016265640A002C2073797374ED
:101AA000656D2073746F7070656421204865617482
:101AB00065725F49443A200042656420686561743C
:101AC000696E67206661696C656400486561746968
:101AD0006E67206661696C65640045312048656108
:101AE00074696E67206661696C656400486561743D
:101AF000696E67206661696C6564004B494C4C45B2
:101B0000442E200070012C0190012701B001220118
:101B1000C0011D01F00118011002130130020E0175
:101B20006002090190020401C002FF000003FA00F4
:101B30004003F5008003F000D003EB002004E60032
:101B40007004E100E004DC004005D700C005D200CD
:101B50004006CD00D006C8008007C3003008BE0094
:101B6000F008B900C009B400B00AAF00B00BAA0079
:101B7000D00CA500000EA000500F9B00C0109600D6
:101B80005012910000148C00C0158700B01782001D
:101B9000B0197D00D01B7800001E730040206E003D
:101BA00090226900F024640040275F0090295A00C9
:101BB000E02B5500102E500020304B001032460014
:101BC000E033410090353C00103737007038320068
:101BD000A0392D00B03A2800A03B2300603C1E0035
:101BE000103D1900903D1400103E0F00703E0A0099
:101BF000C03E0500003F0000403FFBFF803FF6FF76
:101C0000C03FF1FF453120544845524D414C2052D0
:101C1000554E415741590042454420544845524D84
:101C2000414C2052554E4157415900546865726DE0
:101C3000616C2052756E6177617900453120457283
:101C4000723A204D415854454D50004572723A2029
:101C50004D415854454D5020424544004D41585443
:101C6000454D50207472696767657265640045313F
:101C7000204572723A204D494E54454D50004572F0
:101C8000723A204D494E54454D5020424544004D36
:101C9000494E54454D50207472696767657265649A
:101CA000004D383420582059205A204500202F005C
:101CB0002042403A0020403A00024B642000236456
:101CC0006566696E652044454641554C545F004B3E
:101CD00069200023646566696E6520444546415568
:101CE0004C545F004B70200023646566696E65206C
:101CF00044454641554C545F005049442041757459
:101D00006F74756E652066696E69736865642120FD
:101D100050757420746865206C617374204B702C4E
:101D2000204B6920616E64204B6420636F6E737476
:101D3000616E74732066726F6D2062656C6F7720C0
:101D4000696E746F20436F6E66696775726174693E
:101D50006F6E2E680A00504944204175746F747587
:101D60006E65206661696C6564212074696D656FBC
:101D700075740A00453120544845524D414C20525B
:101D8000554E415741590042454420544845524D13
:101D9000414C2052554E4157415900546865726D6F
:101DA000616C2052756E617761790045312048651C
:101DB0006174696E67206661696C65640042656480
:101DC0002068656174696E67206661696C6564008E
:101DD00048656174696E67206661696C656400506E
:101DE0004944204175746F74756E65206661696C35
:101DF0006564212054656D7065726174757265202B
:101E0000746F6F20686967680A00204B643A20008D
:101E1000204B693A2000204B703A20000A20436C86
:101E2000617373696320504944200A002054753A55
:101E30002000204B753A2000206D61783A20002068
:101E40006D696E3A200020643A2000206269617357
:101E50003A2000504944204175746F74756E6520B6
:101E60006661696C6564212054656D70657261748A
:101E700075726520746F6F20686967680A00504941
:101E800044204175746F74756E652073746172744B
:101E90000A00504944204175746F74756E65206660
:101EA00061696C6564212042616420657874727593
:101EB000646572206E756D6265720A004F66660A0F
:101EC0000046616465204865696768742000426562
:101ED00064204C6576656C696E6720004661696CAC
:101EE000656420746F20656E61626C652042656474
:101EF000204C6576656C696E670A004D65736820D5
:101F0000426564204C6576656C20646174613A0AB0
:101F1000004D65736820706F696E742063616E6E2A
:101F20006F74206265207265736F6C7665640A0059
:101F30004D34323120696E636F7272656374207044
:101F40006172616D657465722075736167650A0001
:101F5000496E736572742066696C616D656E74207C
:101F6000616E642073656E64204D3130380A005311
:101F7000656E64204D31303820746F20686561745F
:101F8000206E6F7A7A6C650A00496E7365727420F0
:101F900066696C616D656E7420616E642070726537
:101FA000737320627574746F6E20286F72204D31C8
:101FB0003038290A004D38383820636F6F6C646FF1
:101FC000776E20726F7574696E6520646F6E650A36
:101FD000004D383400546172676574206E6F742050
:101FE000726561636865642C207175657565642030
:101FF000616E206172630A00556C74726162617374
:102000006520636F6F6C646F776E20737461727498
:1020100065640A00486F6D696E67206661696C656A
:102020006400206E6F7420656E74657265642E0A9C
:102030000050726F7465637465642050696E0A00A5
:1020400046696C616D656E7420757365643A200035
:1020500053746174733A20002C204C6F6E67657363
:1020600074206A6F623A2000546F74616C20746946
:102070006D653A200053746174733A20002C204639
:1020800061696C65643A20002C2046696E6973684A
:1020900065643A20005072696E74733A200053747C
:1020A0006174733A20004A3036004A3034004A30B6
:1020B000370020573A004A3038004A30390020575C
:1020C0003A00205A3A0020593A0020436F756E7446
:1020D00020583A0020453A00205A3A0020593A0048
:1020E000583A003A004361703A00205A00205900E3
:1020F000580020204D61783A2000205A00205900D5
:10210000580020204D696E3A20004F6E20004F6627
:102110006600536F667420656E6473746F70733AF3
:10212000200020746F6F206C6F6E6720657874726A
:102130007573696F6E2070726576656E7465640A7A
:102140000020636F6C6420657874727573696F6EBC
:102150002070726576656E7465640A00454550525C
:102160004F4D206461746173697A65206572726F86
:10217000722E0A00290A002062797465733B20637D
:102180007263200053657474696E67732053746FB3
:10219000726564202800290A002062797465733B07
:1021A0002063726320002073746F7265642073650E
:1021B0007474696E6773207265747269657665649C
:1021C000202800202863616C63756C617465642944
:1021D000210A0020213D2000454550524F4D20430B
:1021E0005243206D69736D61746368202D202873DC
:1021F000746F7265642920002053697A653A200063
:10220000496E6465783A2000204D61726C696E3DBC
:10221000563535290A0028454550524F4D3D004559
:102220004550524F4D2076657273696F6E206D690F
:10223000736D6174636820004A3135004A313200A1
:102240004A3137002020506C616E6E6572427566AF
:1022500066657242797465733A200020467265653E
:10226000204D656D6F72793A2000436F6D70696C17
:1022700065643A2041707220203420323031390AAE
:1022800000207C20417574686F723A202864617662
:10229000696472616D69726F290A00323031392DBB
:1022A00030342D303300204C6173742055706461DC
:1022B0007465643A200076312E342E360A004D6162
:1022C000726C696E2D4149334D00312E312E390A21
:1022D000004D61726C696E0020536F667477617295
:1022E000652052657365740A0020576174636864E1
:1022F0006F672052657365740A002042726F776EB3
:10230000206F75742052657365740A0020457874D7
:1023100065726E616C2052657365740A00506F7748
:10232000657255700A0073746172740A004D32341C
:10233000004D3233202573006175746F25692E6757
:10234000006572726F722077726974696E672074AB
:102350006F2066696C650A00205A3A0020593A00DD
:1023600020583A00656E6473746F707320686974E6
:102370003A2000446F6E6520736176696E6720664F
:10238000696C652E0A004D32390025697300256994
:102390006D20256973002569682025696D202569F0
:1023A0007300256964202569682025696D202569E9
:1023B00073002569792025696420256968202569CD
:1023C0006D2025697300656E7175657565696E6749
:1023D0002022005072696E7465722073746F707081
:1023E00065642064756520746F206572726F727306
:1023F0002E2046697820746865206572726F72209D
:10240000616E6420757365204D39393920746F20F1
:10241000726573746172742E202854656D706572D4
:1024200061747572652069732072657365742E20FE
:1024300053657420697420616674657220726573D7
:1024400074617274696E67290A004E6F2043686573
:10245000636B73756D2077697468206C696E652095
:102460006E756D6265722C204C617374204C696EC0
:10247000653A20004E6F20436865636B73756D206D
:1024800077697468206C696E65206E756D6265721F
:102490002C204C617374204C696E653A200063688F
:1024A00065636B73756D206D69736D617463682C02
:1024B000204C617374204C696E653A20004C696E43
:1024C00065204E756D626572206973206E6F742091
:1024D0004C617374204C696E65204E756D62657237
:1024E0002B312C204C617374204C696E653A2000AE
:1024F0004D313130004D33310053442072656164F9
:10250000206572726F720A00446F6E652070726986
:102510006E74696E672066696C650A0020496E7684
:10252000616C69642065787472756465722000005E
:1025300000A0C000000000000000000000574300A1
:1025400000574300004D43627573793A20706175FE
:1025500073656420666F7220696E7075740A00621C
:102560007573793A2070617573656420666F7220A7
:10257000757365720A00627573793A2070726F63C1
:10258000657373696E670A004A3135004B494C4CDC
:1025900045442E20004B494C4C20636175736564A3
:1025A000206279204B494C4C20627574746F6E2FF9
:1025B00070696E0A004B494C4C45442E20004B4933
:1025C0004C4C2063617573656420627920746F6F71
:1025D000206D75636820696E616374697665207427
:1025E000696D65202D2063757272656E7420636F4E
:1025F0006D6D616E643A20004A3131005072696E2F
:102600007465722068616C7465642E206B696C6CF3
:1026100028292063616C6C6564210A000000A0C059
:102620000000000000000000000048420000484296
:1026300000008040000000005761726E696E673ACA
:1026400020486F6D696E672042756D702044697611
:1026500069736F72203C20310A000202040000A05E
:10266000400000A0400000004000005C4300005714
:102670004300004D43FFFFFF486F74656E64207494
:102680006F6F20636F6C640A00486F74656E64201E
:10269000746F6F20636F6C640A007C3C3E5E2B3D60
:1026A0003F2F5B5D3B2C2A225C0043616E6E6F7492
:1026B000206F70656E2073756264697220005344E8
:1026C0002063617264206F6B0A006F70656E526FD9
:1026D0006F74206661696C65640A00766F6C756D55
:1026E000652E696E6974206661696C65640A0045CF
:1026F00072726F723A00534420696E697420666189
:10270000696C0A006563686F3A00526573656E64B0
:102710003A20006F6B0020746F6F206C6F6E672023
:10272000657874727573696F6E2070726576656E08
:102730007465640A0020636F6C6420657874727538
:1027400073696F6E2070726576656E7465640A00D9
:10275000FFFDFCFAF8F6F4F2F0EEECEAE9E7E5E367
:10276000E1E0DEDCDAD9D7D5D4D2D0CFCDCBCAC820
:10277000C7C5C3C2C0BFBDBCBAB9B7B6B4B3B2B0A7
:10278000AFADACAAA9A8A6A5A4A2A1A09E9D9C9A03
:1027900099989795949392908F8E8D8B8A8988873C
:1027A0008684838281807F7E7D7B7A797877767557
:1027B00074737271706F6E6D6C6B6A696867666551
:1027C00064636261605F5E5D5C5B5A59585857563E
:1027D000555453525150504F4E4D4C4B4A4A494814
:1027E000474646454443424241403F3E3E3D3C3BD6
:1027F0003B3A393838373635353433323231303088
:102800002F2E2E2D2C2B2B2A29292827272625252C
:1028100024232322212120201F1E1E1D1C1C1B1BC4
:102820001A19191818171616151514131312121150
:1028300011100F0F0E0E0D0D0C0C0B0A0A090908D2
:102840000807070606050504040303020201000049
:10285000545249474745524544006F70656E003AEF
:1028600020007A325F6D696E007A5F6D696E007963
:102870005F6D696E00785F6D696E005265706F7292
:1028800074696E6720656E6473746F702073746111
:102890007475730A000A4D65617375726564207002
:1028A0006F696E74733A0A005A206F6666736574B6
:1028B0003A20004E756D20582C593A20352C350A97
:1028C0000000000001000000010000800055555587
:1028D000000000400033333300AAAA2A00499224A2
:1028E0000000002000C7711C0099991900D14517FC
:1028F00000555515003BB113002449120011111168
:1029000000000010000F0F0F00E3380E0043790D98
:1029100000CCCC0C00C3300C00E8A20B0064210BEF
:1029200000AAAA0A00703D0A009DD80900427B094E
:102930000092240900DCD3080088880800104208AF
:102940000000000800F0C1070087870700755007E6
:1029500000711C07003EEB0600A1BC060069900652
:102960000066660600703E06006118060017F40552
:102970000074D105005BB00500B2900500627205DD
:10298000005555050078390500B81E0500050505F8
:10299000004EEC040087D40400A1BD040090A704FD
:1029A0000049920400C17D0400EE690400C756048A
:1029B00000444404005C3204000821040041100477
:1029C00000000004003FF00300F8E0030026D203FB
:1029D00000C3C30300CCB503003AA803000A9B035D
:1029E00000388E0300C08103009F750300D0690387
:1029F00000505E03001D53030034480300913D0363
:102A0000003333030016290300381F030097150312
:102A100000300C0300030303000BFA020049F1022B
:102A200000BAE802005CE002002DD802002DD002BE
:102A30000059C80200B0C0020031B90200DAB10288
:102A400000AAAA0200A0A30200BC9C0200FA950200
:102A5000005C8F0200DF88020082820200457C0257
:102A6000002776020027700200436A02007C64029D
:102A700000D05E02003F590200C853020048617254
:102A800064636F6465642044656661756C7420538B
:102A9000657474696E6773204C6F616465640A00C5
:102AA000B80B0000D00700003C0000001027000019
:102AB0000000FA430000FA430000C04000007042EA
:102AC0000000A0420000A0420000C8433333B942D6
:102AD00020286D6D290020204D36303320002055F0
:102AE000004C0046696C616D656E74206C6F6164AA
:102AF0002F756E6C6F6164206C656E677468733AD5
:102B00000A0020204D393030204B004C696E656141
:102B10007220416476616E63653A0A0020440020A9
:102B2000490020204D3330342050002044002049FB
:102B30000020204D3330312050005049442073652F
:102B40007474696E67733A0A00205A0020204D366B
:102B5000363600456E6473746F702061646A7573F5
:102B6000746D656E743A0A00205A002059002020C6
:102B7000473239205333205800205A0020204D344A
:102B800032302053004D65736820426564204C65E7
:102B900076656C696E673A0A00205A002059002059
:102BA000204D323036205800486F6D65206F6666C4
:102BB0007365743A0A00204500205A00205900200D
:102BC000580020540020530020204D323035205131
:102BD0000020453C6D61785F655F6A65726B3E0001
:102BE00020583C6D61785F785F6A65726B3E205952
:102BF0003C6D61785F795F6A65726B3E205A3C6D0F
:102C000061785F7A5F6A65726B3E00416476616EDF
:102C10006365643A20513C6D696E5F7365676D65ED
:102C20006E745F74696D655F75733E20533C6D69AA
:102C30006E5F66656564726174653E20543C6D69C3
:102C40006E5F74726176656C5F66656564726174EF
:102C5000653E0020540020520020204D32303420A8
:102C60005000416363656C65726174696F6E202802
:102C7000756E6974732F7332293A20503C707269F3
:102C80006E745F616363656C3E20523C7265747262
:102C90006163745F616363656C3E20543C74726170
:102CA00076656C5F616363656C3E0A0020450020B9
:102CB0005A0020590020204D3230312058004D61FB
:102CC00078696D756D20416363656C6572617469C7
:102CD0006F6E2028756E6974732F7332293A0A005B
:102CE000204500205A0020590020204D323033204A
:102CF00058004D6178696D756D2066656564726117
:102D00007465732028756E6974732F73293A0A00ED
:102D1000204500205A0020590020204D39322058EB
:102D20000053746570732070657220756E69743A13
:102D30000A0020204D3230302044300A0020204D3F
:102D40003230302044002044697361626C65640A4B
:102D50000046696C616D656E742073657474696E8C
:102D600067733A002020473231202020203B00208A
:102D700066697273740A005A0059005800486F6DF2
:102D80006520004A3233004D323500473930004764
:102D90003120452D3320463138303000473931005D
:102DA00057726974696E6720746F2066696C653A42
:102DB00020006F70656E206661696C65642C20462A
:102DC000696C653A20006F70656E206661696C659C
:102DD000642C2046696C653A200046696C65207356
:102DE000656C65637465640A002053697A653A20EE
:102DF0000046696C65206F70656E65643A2000203E
:102E000066696C653A2000646F696E67006672657A
:102E10007368004E6F772000454E44205355425250
:102E20004F5554494E450A002220706F73002220EE
:102E3000706172656E743A2200535542524F555478
:102E4000494E452043414C4C207461726765743A89
:102E500022004B494C4C45442E2000747279696E17
:102E60006720746F2063616C6C207375622D6763DB
:102E70006F64652066696C65732077697468207477
:102E80006F6F206D616E79206C6576656C732E2096
:102E90004D4158206C6576656C2069733A006F70FF
:102EA000656E206661696C65642C2046696C653AC4
:102EB000200000002100240027002A002D003000FF
:102EC000330001010000040107010A010000220093
:102ED000250028002B002E003100340002010000E4
:102EE000050108010B010000200023002600290035
:102EF0002C002F003200000100000301060109012F
:102F000005050505070508080808020202020A0A65
:102F10000808040404040101010101010101030383
:102F2000030303030303040707070C0C0C0C0C0C2E
:102F30000C0C0202020206060606060606060B0B2B
:102F40000B0B0B0B0B0B010210202008081020406C
:102F5000102040800201020108040201010204085D
:102F600010204080804020100804020180040201EB
:102F70008040201008040201080402010102040834
:102F800010204080010204081020408000000A0B3D
:102F900002090C0D0E0807030401000000000000E8
:102FA0000000000000000000000000000000000021
:102FB00000000000000000001211100000000000DE
:102FC0000000000000000000000000000000000001
:102FD0000000556E6B6E6F776E20636F6D6D616E66
:102FE000643A202200496E736572742066696C61D0
:102FF0006D656E7420616E642070726573732062FB
:103000007574746F6E20286F72204D313038290A24
:10301000004572726F722077726974696E672074EE
:103020006F20454550524F4D210A0000E8EDC7ED95
:1030300011241FBECFEFD1E2DEBFCDBF00E00CBF39
:1030400014E0A0E0B2E0ECEBF8EF01E00BBF02C04F
:1030500007900D92A034B107D9F72CE1A0E4B4E0B9
:1030600001C01D92AF37B207E1F718E1C7E1D8E11F
:1030700000E006C021970109802FFE010E94B6FBE7
:10308000C631D10780E00807A9F70E94F5E70C9444
:103090004DFC0C9400002F923F924F925F926F92E2
:1030A0007F928F929F92AF92BF92CF92DF92EF92D8
:1030B000FF920F931F93CF93DF93CDB7DEB7A79700
:1030C0000FB6F894DEBF0FBECDBFC0906304D090A2
:1030D0006404E0906504F090660420E030E040EA8B
:1030E00050E4C701B6010E943DF487FD52C120E0C3
:1030F00030E041E953E4C701B6010E94E0FA181636
:103100000CF447C110920112109200128091090133
:103110004091FF11042E000C550B817021E0822795
:1031200090E04817590709F433C080910901817074
:1031300028272093FF1181111BC00E946BB3E5EF7C
:10314000F8E084918F01882351F0082E000C990B30
:103150000E9466B30F5F1F4FF8018491F4CF8DE09A
:1031600090E00E9466B38AE090E00E9466B310C0CF
:10317000E9EFF8E084918F01882389F3082E000C91
:10318000990B0E9466B30F5F1F4FF8018491F4CF33
:10319000809166108330C1F12CF4882369F081306E
:1031A000F1F0ACC0843059F1853009F0A7C0E1EEF0
:1031B000F8E084918F0169C08091E30D882309F4C0
:1031C0009DC081E0809366100E942E996093F61155
:1031D0007093F7118093F8119093F9118FC080913B
:1031E000E30D81118BC08091AF0F882311F082E035
:1031F00049C080916710882309F4F6C07FC0809190
:1032000040128823A1F37AC0EDEEF8E084918F019B
:10321000882351F0082E000C990B0E9466B30F5FB3
:103220001F4FF8018491F4CF8DE090E00E9466B3C7
:103230008AE090E00E9466B38091E30D81115EC048
:103240008091650D9091660D891B8F7009F056C0B5
:1032500080916710823088F411E01093671080919C
:10326000021281110AC085EE98E09093EE1B8093C4
:10327000ED1B0E94B19D10930212809140128111AA
:10328000B6CF84E08093661039C0882351F0082EB1
:10329000000C990B0E9466B30F5F1F4FF8018491D9
:1032A000F4CF8DE090E00E9466B38AE090E00E9447
:1032B00066B39091E30D911108C08091650D209146
:1032C000660D821B8F7009F4A2C0809102128111D9
:1032D00015C0911113C08091650D9091660D891BE9
:1032E0008F7009F499C00AC08DE090E00E9466B327
:1032F0008AE090E00E9466B3109267108091E81116
:103300009091E91103974CF57CE8272E74E0372E55
:10331000E0E68E2EEAEE9E2EA12CB12C8BE493E1FA
:103320000E94074018161906C4F48091E811909184
:10333000E911049794F48BE493E10E94CB3F8093CE
:10334000EE11E091EF11F091F0118A3019F08D300B
:1033500009F0D7C0309709F0DDC08091E811909155
:10336000E911009711F40C94FF2901979093E9114A
:103370008093E8118091EA119091EB11019664E03D
:1033800070E00E94A3FB9093EB118093EA110C94E0
:10339000FF2980910012909101128136FAEE9F0769
:1033A000E8F01092011210920012EDEFF8E0849113
:1033B0008F01882351F0082E000C990B0E9466B3F0
:1033C0000F5F1F4FF8018491F4CF8DE090E00E94D1
:1033D00066B38AE090E00E9466B398CE019690931F
:1033E00001128093001292CE10926610E1EFF8E085
:1033F00084918F01882309F477CF082E000C990B54
:103400000E9466B30F5F1F4FF8018491F3CF1092B3
:1034100066101092671059CF8CEC98E09093EE1BD9
:103420008093ED1B0E94B19D0E94CBD6811153C0A9
:1034300080E090E0A0EAB0E488A399A3AAA3BBA38C
:1034400020E030E048EC51E460915B0470915C0452
:1034500080915D0490915E040E94BAF86B017C013A
:1034600020E030E04DE453E40E943DF487FD06C0C7
:10347000C12CD12CFDE4EF2EF3E4FF2EC982DA82B9
:10348000EB82FC82BE01605E7F4FCE0101960E94FE
:10349000699B80E090E0A8ECB2E48CA39DA3AEA36E
:1034A000BFA380E090E0ADE4B3E488A399A3AAA30E
:1034B000BBA380E090E0A0EAB0E489839A83AB8369
:1034C000BC83AE014C5D5F4FBE01605E7F4FCE019D
:1034D00001960E94489B88EC98E09093EE1B8093A5
:1034E000ED1B0E94B19D84EC98E09093EE1B8093BD
:1034F000ED1B0E94B19D1092671081E08093021233
:10350000FDCE8A3309F426CFEF35F10514F40C947F
:10351000D12720CF8091EC119091ED1120E6289FCA
:103520008001299F100D1124C8018A599F4EE80F70
:10353000F91F1282980128593F4E790161E470E029
:10354000C9010E940AFC009711F40C94B5279093CE
:10355000F2118093F1118E199F09800F911F60E085
:1035600070E087599F4E0E943EF00E94FEF9CB0109
:10357000770FAA0BBB0B8232910510F00C94B52784
:10358000FC018827EE58FF4F8F4F0C94B6FBEFEBF2
:10359000F8E084918F01882351F0082E000C990BDC
:1035A0000E9466B30F5F1F4FF8018491F4CF20E0B3
:1035B00030E040E05FE360916304709164048091C7
:1035C0006504909166041EC0EAEBF8E084918F01D7
:1035D000882351F0082E000C990B0E9466B30F5FF0
:1035E0001F4FF8018491F4CF6091510470915204FF
:1035F000072E000C880B990B0E9443F420E030E06A
:1036000040E05FE30E94BAF80E94FEF9CB010E94FD
:1036100031460E94FFD58DE090E00E9466B38AE0BB
:1036200090E00E9466B30C94B527E5EBF8E0849136
:103630008F01882351F0082E000C990B0E9466B36D
:103640000F5F1F4FF8018491F4CF20E030E040E09D
:103650005FE360914D0470914E0480914F0490910E
:103660005004D0CFE0EBF8E084918F01882351F033
:10367000082E000C990B0E9466B30F5F1F4FF801D4
:103680008491F4CF60914B0470914C04B1CF2091A0
:10369000540B3091550B44E6429FC001439F900D5F
:1036A00011246FEF70E00E94A3FB8B01653671055A
:1036B00010F004E610E0EBEAF8E084917F01882343
:1036C00059F0082E000C990B0E9466B3FFEFEF1A19
:1036D000FF0AF7018491F3CFB80180E090E00C94E9
:1036E000F523E7EAF8E084918F01882351F0082E52
:1036F000000C990B0E9466B30F5F1F4FF801849175
:10370000F4CF80E290E00E9466B3E3EAF8E08491AF
:103710008F01882351F0082E000C990B0E9466B38C
:103720000F5F1F4FF8018491F4CF609153047091A3
:10373000540480915504909156040E9400D680E272
:1037400090E00E9466B3EFE9F8E084918F0188234E
:1037500051F0082E000C990B0E9466B30F5F1F4FAB
:10376000F8018491F4CF60915704709158048091CE
:10377000590490915A040E9400D680E290E00E9481
:1037800066B3EBE9F8E084918F01882351F0082EAD
:10379000000C990B0E9466B30F5F1F4FF8018491D4
:1037A000F4CF60915B0470915C0480915D04909112
:1037B0005E040E9400D680E290E0D9C68091E30DBD
:1037C000882309F450C0E6E9F8E084918F0188234A
:1037D00051F0082E000C990B0E9466B30F5F1F4F2B
:1037E000F8018491F4CF8091E40D882359F1809100
:1037F000AF0F882329F18091591090915A10A09110
:103800005B10B0915C100097A105B105C1F0BC013F
:10381000CD016D597F4F8F4F9F4F24E630E040E040
:1038200050E00E945CF860915D1070915E10809194
:103830005F10909160100E945CF8822F01C080E0C0
:1038400090E0E5CEE2E9F8E084918F01882309F465
:10385000E2CE082E000C990B0E9466B30F5F1F4F3B
:10386000F8018491F3CFEAE8F8E084918F0188238E
:1038700009F4D1CE082E000C990B0E9466B30F5F9D
:103880001F4FF8018491F3CFE5E8F8E084918F01B0
:10389000882351F0082E000C990B0E9466B30F5F2D
:1038A0001F4FF8018491F4CF8091F6119091F71198
:1038B000A091F811B091F911892B8A2B8B2B09F467
:1038C00077C00E942E99A50194010E945CF86901BD
:1038D0007A016091F6117091F7118091F811909131
:1038E000F911A50194010E945CF88601021B130BDB
:1038F000C8016CE370E00E948FFBCB019927EAE0DE
:10390000F0E0BF010E94A3FB282FCB01BF010E9462
:10391000A3FB805D80934104205D209342041092BC
:10392000430481E494E00E94FFD580E290E00E948D
:1039300066B3E3E8F8E084917F01882359F0082E0C
:10394000000C990B0E9466B3FFEFEF1AFF0AF70114
:103950008491F3CF80E290E00E9466B3C8016CE3EB
:1039600070E00E948FFB6AE070E00E94A3FB605D44
:1039700060934104805D809342041092430481E48B
:1039800094E00E94FFD580E290E00E9466B3E1E8F7
:10399000F8E084918F01882309F43DCE082E000CB5
:1039A000990B0E9466B30F5F1F4FF8018491F3CF0C
:1039B00080E290E00E9466B3E9E7F8E084918F012D
:1039C000882309F428CE082E000C990B0E9466B3B8
:1039D0000F5F1F4FF8018491F3CF10922112809155
:1039E000090180FF11C0E5E7F8E084918F01882389
:1039F00009F411CE082E000C990B0E9466B30F5FDC
:103A00001F4FF8018491F3CF83E50E9495D5882359
:103A100041F00E94B0D50E9403FA7093F5116093B3
:103A2000F411E1E7F8E084918F01882351F0082E2A
:103A3000000C990B0E9466B30F5F1F4FF801849131
:103A4000F4CF8DE090E00E9466B38AE090E00E949F
:103A500066B380913F12882309F4A1C28091F411CA
:103A60009091F5118430910509F4D2C040F4892B6E
:103A700009F03BC4E1E9F6E084918F010CC0883085
:103A8000910509F47EC10C9709F02FC4E9E0F5E037
:103A900084918F012FC2882351F0082E000C990BBE
:103AA0000E9466B30F5F1F4FF8018491F4CF8DE041
:103AB00090E00E9466B38AE090E00E9466B3E6E878
:103AC000F6E084918F01882351F0082E000C990BA9
:103AD0000E9466B30F5F1F4FF8018491F4CF8DE011
:103AE00090E00E9466B38AE090E00E9466B3EAE745
:103AF000F6E084918F01882351F0082E000C990B79
:103B00000E9466B30F5F1F4FF8018491F4CF8DE0E0
:103B100090E00E9466B38AE090E00E9466B3EEE611
:103B2000F6E084918F01882351F0082E000C990B48
:103B30000E9466B30F5F1F4FF8018491F4CF8DE0B0
:103B400090E00E9466B38AE090E00E9466B3E0E6EF
:103B5000F6E084918F01882351F0082E000C990B18
:103B60000E9466B30F5F1F4FF8018491F4CF8DE080
:103B700090E00E9466B38AE090E00E9466B3E2E5BE
:103B8000F6E084918F01882351F0082E000C990BE8
:103B90000E9466B30F5F1F4FF8018491F4CF8DE050
:103BA00090E00E9466B38AE090E00E9466B3E5E48C
:103BB000F6E084918F01882351F0082E000C990BB8
:103BC0000E9466B30F5F1F4FF8018491F4CF8DE020
:103BD00090E00E9466B38AE090E00E9466B3E8E35A
:103BE000F6E084918F01882351F0082E000C990B88
:103BF0000E9466B30F5F1F4FF8018491F4CF8DE0F0
:103C000090E00E9466B38AE090E00E9466B36DC3C4
:103C1000EAE2F6E084918F01882351F0082E000C2F
:103C2000990B0E9466B30F5F1F4FF8018491F4CF88
:103C30008DE090E00E9466B38AE090E00E9466B357
:103C4000ECE1F6E084918F01882351F0082E000CFE
:103C5000990B0E9466B30F5F1F4FF8018491F4CF58
:103C60008DE090E00E9466B38AE090E00E9466B327
:103C7000E6E0F6E084918F01882351F0082E000CD5
:103C8000990B0E9466B30F5F1F4FF8018491F4CF28
:103C90008DE090E00E9466B38AE090E00E9466B3F7
:103CA000E0EFF5E084918F01882351F0082E000C9D
:103CB000990B0E9466B30F5F1F4FF8018491F4CFF8
:103CC0008DE090E00E9466B38AE090E00E9466B3C7
:103CD000EEEDF5E084918F01882351F0082E000C61
:103CE000990B0E9466B30F5F1F4FF8018491F4CFC8
:103CF0008DE090E00E9466B38AE090E00E9466B397
:103D0000ECECF5E084918F01882351F0082E000C33
:103D1000990B0E9466B30F5F1F4FF8018491F4CF97
:103D20008DE090E00E9466B38AE090E00E9466B366
:103D3000EEEBF5E084918F01882351F0082E000C02
:103D4000990B0E9466B30F5F1F4FF8018491F4CF67
:103D50008DE090E00E9466B38AE090E00E9466B336
:103D6000E0EBF5E084918F01882309F448CF082E19
:103D7000000C990B0E9466B30F5F1F4FF8018491EE
:103D8000F3CFE9EAF5E084918F01882351F0082E02
:103D9000000C990B0E9466B30F5F1F4FF8018491CE
:103DA000F4CF8DE090E00E9466B38AE090E00E943C
:103DB00066B3E2EAF5E084918F01882351F0082E82
:103DC000000C990B0E9466B30F5F1F4FF80184919E
:103DD000F4CF8DE090E00E9466B38AE090E00E940C
:103DE00066B3EBE8F5E084918F01882351F0082E4B
:103DF000000C990B0E9466B30F5F1F4FF80184916E
:103E0000F4CF8DE090E00E9466B38AE090E00E94DB
:103E100066B3E4E7F5E084918F01882351F0082E22
:103E2000000C990B0E9466B30F5F1F4FF80184913D
:103E3000F4CF8DE090E00E9466B38AE090E00E94AB
:103E400066B3EDE5F5E084918F01882351F0082EEB
:103E5000000C990B0E9466B30F5F1F4FF80184910D
:103E6000F4CF8DE090E00E9466B38AE090E00E947B
:103E700066B3E6E4F5E084918F01882351F0082EC3
:103E8000000C990B0E9466B30F5F1F4FF8018491DD
:103E9000F4CF8DE090E00E9466B38AE090E00E944B
:103EA00066B3E3E3F5E084918F01882351F0082E97
:103EB000000C990B0E9466B30F5F1F4FF8018491AD
:103EC000F4CF8DE090E00E9466B38AE090E00E941B
:103ED00066B3E0E2F5E084918F01882309F48FCE88
:103EE000082E000C990B0E9466B30F5F1F4FF8015C
:103EF0008491F3CF882351F0082E000C990B0E9477
:103F000066B30F5F1F4FF8018491F4CF8DE090E00E
:103F10000E9466B38AE090E00E9466B3E2EFF4E0AC
:103F200084918F01882351F0082E000C990B0E9478
:103F300066B30F5F1F4FF8018491F4CF8DE090E0DE
:103F40000E9466B38AE090E00E9466B3EAEDF4E076
:103F500084918F01882351F0082E000C990B0E9448
:103F600066B30F5F1F4FF8018491F4CF8DE090E0AE
:103F70000E9466B38AE090E00E9466B3E2ECF4E04F
:103F800084918F01882309F43ACE082E000C990BF6
:103F90000E9466B30F5F1F4FF8018491F3CF8091A9
:103FA000E40D882309F478C181E0809361101092B8
:103FB00063101092621083E39EE00E94E9AC8BE1F3
:103FC000E3E3FEE0DE01159601900D928A95E1F79C
:103FD0008091310E9091320E9C838B8385EF92E01D
:103FE0009A83898340E050E0BE016F5F7F4F80E09D
:103FF00090E00E945DB5CE0101960E9406A4C0909B
:104000006210D09063100091F4111091F511C60167
:10401000801B910B049720F06801F3E0CF0ED11CB8
:1040200053EB452E54E0552E64EA662E64E0762E5E
:10403000C016D10608F459C10115110509F09DC03B
:1040400067EE7DE083E39EE00E94B1AB6BE173E03D
:1040500087EE9DE00E9415FC892B09F048C0F20113
:10406000849143EBE42E44E0F42E882359F0082E8B
:10407000000C990B0E9466B3FFEFEF1AFF0AF701DD
:104080008491F3CF8DE090E00E9466B38AE090E0E7
:104090000E9466B3F301849134EAE32E34E0F32EF8
:1040A000882359F0082E000C990B0E9466B3FFEF8D
:1040B000EF1AFF0AF7018491F3CF8DE090E00E94A0
:1040C00066B38AE090E00E9466B380E090E00E94D0
:1040D000F9D5E4E9F4E084917F012FEFE21AF20AC6
:1040E000882309F4D6C00E94009DF701F4CFE0E9CF
:1040F000F4E084917F01882359F0082E000C990B7D
:104100000E9466B3FFEFEF1AFF0AF7018491F3CF25
:104110008DE090E00E9466B38AE090E00E9466B372
:10412000F10184912CE8E22E24E0F22E882359F04C
:10413000082E000C990B0E9466B3FFEFEF1AFF0ADE
:10414000F7018491F3CF8DE090E00E9466B38AE09E
:1041500090E00E9466B380E090E00E94F9D5E7E825
:10416000F4E084917F012FEFE21AF20A882309F428
:1041700090C00E94009DF701F4CF60E070E0C8019C
:1041800001970E9433D78091E50D882309F45AC026
:10419000E5E8F4E084917F01882359F0082E000CB3
:1041A000990B0E9466B3FFEFEF1AFF0AF7018491A3
:1041B000F3CF87EE9DE00E94FFD58DE090E00E9456
:1041C00066B38AE090E00E9466B3E3E8F4E084918D
:1041D0007F01882359F0082E000C990B0E9466B3CA
:1041E000FFEFEF1AFF0AF7018491F3CF84EF9DE010
:1041F0000E94FFD58DE090E00E9466B38AE090E0D7
:104200000E9466B3C8010E94F9D5E1E8F4E0849108
:104210007F012FEFE21AF20A882321F00E94009D0D
:10422000F701F5CF94EFE92E9DE0F92EF70181918A
:104230007F01882319F00E94009DF8CF8AE00E9438
:10424000009D27C087EE9DE00E94FFD58DE090E0A5
:104250000E9466B38AE090E00E9466B384EF9DE01E
:104260000E94FFD58DE090E00E9466B38AE090E066
:104270000E9466B3C8010E94F9D584EFE82E8DE054
:10428000F82EF70181917F018823C1F20E94009DE1
:10429000F8CF0F5F1F4FCCCEE2E7F4E084918F019F
:1042A000882351F0082E000C990B0E9466B30F5F13
:1042B0001F4FF8018491F4CF8DE090E00E9466B327
:1042C0008AE090E00E9466B3E3E6F4E084918F0117
:1042D000882309F494CC082E000C990B0E9466B335
:1042E0000F5F1F4FF8018491F3CFEDE6F8E0849162
:1042F0008F01882309F48FC9082E000C990B0E94A6
:1043000066B30F5F1F4FF8018491F3CF8091E30DE7
:10431000882319F00E94F6D428C610926710B7C0FF
:1043200080916610823019F0833609F088C01091B0
:104330006710123009F444C028F4112379F01130C9
:1043400011F165C0143009F45CC008F44DC015309B
:1043500009F05DC083E08093661057C00E942E99DB
:104360006093F6117093F7118093F8119093F911FF
:104370008091E40D882319F081E08093E30D81E0C2
:104380008093661044C08BE594E09093EE1B80937D
:10439000ED1B0E94B19D109202120E942E99609313
:1043A000F6117093F7118093F8119093F9118091A1
:1043B000E40D81111093E30D81E0809366101EC01F
:1043C00086E594E09093EE1B8093ED1B0E94B19DD7
:1043D00010923902109240048091E40D882371F00C
:1043E00081E08093E30D0AC08FE594E09093EE1B8B
:1043F0008093ED1B0E94B19D1092021210926710E3
:1044000006C083E08093661082E080936710E9E63F
:10441000F8E084918F01882351F0082E000C990B4D
:104420000E9466B30F5F1F4FF8018491F4CF8DE0B7
:1044300090E00E9466B38AE090E00E9466B38091AB
:104440004A04882309F491C581E594E09093EE1B1A
:104450008093ED1B0E94B19D0E94F9A310924A0423
:10446000109240041092390280916710843018F045
:1044700082508093671083E08093661076C58091A8
:10448000E30D811104C080916610833619F40E94F7
:10449000B2B46BC5E5E6F8E084918F01882351F052
:1044A000082E000C990B0E9466B30F5F1F4FF80196
:1044B0008491F4CF8DE090E00E9466B38AE090E0B2
:1044C0000E9466B310926610109267104EC58CE57C
:1044D00098E00E9428A480916610833609F445C5AF
:1044E0000091F1111091F2117801F4E0EF0EF11C3E
:1044F0006AE270E0C7010E940AFCF80124812F32B1
:1045000021F4B8016B5F7F4F03C02C3331F4B70146
:1045100081E292E10E941EFC7EC810922112009757
:1045200019F0FC01319710828091F1119091F211F4
:1045300040E061E004960E9431D88091AF0F88235B
:10454000C9F0E8E5F8E084918F01882351F0082E46
:10455000000C990B0E9466B30F5F1F4FF801849106
:10456000F4CF8DE090E00E9466B38AE090E00E9474
:1045700066B351C8E4E5F8E084918F01882389F39C
:10458000082E000C990B0E9466B30F5F1F4FF801B5
:104590008491F4CF8091650D9091660D891B8F7089
:1045A00009F0E3C480916610823009F4DEC48336DA
:1045B00009F4DBC48091AF0F81110BC5D6C483E52C
:1045C0000E9495D5811126C083E40E9495D5882349
:1045D00009F4CBC48091650D9091660D891B8F7095
:1045E00009F0C3C420E030E040E251E460915B0494
:1045F00070915C0480915D0490915E040E943DF492
:1046000087FF08C089E498E09093EE1B8093ED1B30
:104610000E94B19D0E94B0D520E030E0A9010E9427
:104620003DF487FD10C00E94B0D520E030E849E895
:1046300053E40E94E0FA18164CF00E94B0D50E9494
:1046400003FACB0105C080E090E002C083E191E075
:104650000E94E75F8AC483E50E9495D5882309F408
:1046600084C40E94B0D520E030E0A9010E943DF44E
:1046700087FD10C00E94B0D520E030E046E153E451
:104680000E94E0FA18164CF00E94B0D50E9403FA7E
:10469000CB0105C080E090E002C086E990E00E9476
:1046A000674663C483E50E9495D58823E1F00E94A4
:1046B000B0D520E030E04FE753E40E94A2F420E0C0
:1046C00030E048EC52E40E9496F90E9403FA6F3FF2
:1046D000710519F010F06FEF70E07093550B609357
:1046E000540B0C940B1B8FEF90E09093550B809321
:1046F000540B0C940B1B8091650D9091660D891BDA
:104700008F7011F00C940B1B8091E30D81110C94B0
:104710000B1B0E94916B5F9A809149048E7F80935E
:1047200049048A9A479A809149048D7F809349046D
:10473000809108018095817080930601479A80914D
:1047400049048B7F80934904129A0C940B1B83E5D8
:104750000E9495D5882319F10E94B0D520E030E061
:1047600040E252E40E943DF487FD0FC00E94B0D5A4
:1047700020E030EC49E754E40E94E0FA181644F0D7
:104780000E94B0D50E94FEF905C068E270E002C048
:1047900067EE73E07093010260930002E6C3E3E406
:1047A000F8E084918F01882351F0082E000C990BBA
:1047B0000E9466B30F5F1F4FF8018491F4CFC09041
:1047C0000002D09001020D2C000CEE08FF08F7FE4D
:1047D0000EC06DE28BE493E10E947E3F662777274F
:1047E000CB016C197D098E099F094AE003C04AE09C
:1047F000C701B6010E94B9D50C940B1B8091650DC1
:104800009091660D891B8F7009F0AFC3809166107F
:10481000823009F4AAC3833609F075C3A6C3809118
:10482000650D9091660D891B8F7011F00C940B1B18
:1048300080916610823011F40C940B1B833609F0C2
:1048400000C40C940B1B8091650D9091660D891B23
:104850008F7009F08AC380916610823009F485C395
:10486000833609F044C581C38091650D9091660D32
:10487000891B8F7009F079C380916610823009F42A
:1048800074C3833609F069C570C38091650D90913A
:10489000660D891B8F7009F068C3809166108230A5
:1048A00009F463C3833609F08EC55FC3809121127A
:1048B000811103C00E946BB34BC28E3271F580919F
:1048C00022128E3209F0CDC18091840F882309F421
:1048D0003FC281508093840F882361F090E001975C
:1048E0004FE1489F9001499F300D1124C901825B1F
:1048F000914F02C080E19EE02BE1FC013496A3E3DE
:10490000BEE001900D922A95E1F7FC01828193812E
:104910009093320E8093310E1BC28C3309F0A1C1EB
:104920006DE173E081E292E10E9415FC892B21F494
:1049300081E080933F120CC26CE273E081E292E16D
:104940000E9415FC892B79F4EDE2F4E084918F014B
:104950000F5F1F4F882321F00E94009DF801F6CFC2
:104960008FE094E01FC163E473E081E292E10E9472
:1049700015FC892B79F4EBEEF3E084918F010F5F46
:104980001F4F882321F00E94009DF801F6CF88ED8B
:1049900093E008C16AE573E081E292E10E9415FCB0
:1049A000892B31F5EDEBF3E084918F010F5F1F4F01
:1049B000882321F00E94009DF801F6CF88EB93E058
:1049C0009093EE1B8093ED1B0E94B19D84E594E0D3
:1049D00099A388A389E690E09A838983BE01605EEB
:1049E0007F4FCE0101960E94C2D48DE796E02DC084
:1049F00068E673E081E292E10E9415FC892B99F54B
:104A0000E8E9F3E084918F010F5F1F4F882321F0C5
:104A10000E94009DF801F6CF83E993E09093EE1B8E
:104A20008093ED1B0E94B19D8DE796E099A388A32A
:104A300089E690E09A838983BE01605E7F4FCE0154
:104A400001960E94C2D484E594E099A388A382EDE4
:104A500090E09A838983BE01605E7F4FCE0101960C
:104A60000E94C2D475C16BE773E081E292E10E94BB
:104A700015FC892B79F4E8E7F3E084918F010F5F4F
:104A80001F4F882321F00E94009DF801F6CF8FE68A
:104A900093E088C069E873E081E292E10E9415FC2E
:104AA000892B71F40CE413E0F8018491882329F038
:104AB0000F5F1F4F0E94009DF7CF85E493E072C007
:104AC0006FE973E081E292E10E9415FC892B79F491
:104AD000E6E2F3E084918F010F5F1F4F882321F0FE
:104AE0000E94009DF801F6CF8FE193E05BC061EB7F
:104AF00073E081E292E10E9415FC892B79F4E7E0F2
:104B0000F3E084918F010F5F1F4F882321F00E94F3
:104B1000009DF801F6CF86EF92E044C06CEB73E0A5
:104B200081E292E10E9415FC892B79F4EDEDF2E02F
:104B300084918F010F5F1F4F882321F00E94009DF9
:104B4000F801F6CF8BEC92E02DC068EC73E081E2C7
:104B500092E10E9415FC892B79F4E0EBF2E084915C
:104B60008F010F5F1F4F882321F00E94009DF801E5
:104B7000F6CF8EE992E016C066ED73E081E292E135
:104B80000E9415FC892BA9F4E4E8F2E084918F01DE
:104B90000F5F1F4F882321F00E94009DF801F6CF80
:104BA00083E792E09093EE1B8093ED1B0E94B19DF2
:104BB000CFC063EE73E081E292E10E9415FC892B85
:104BC000D9F4EFE4F2E084918F010F5F1F4F882347
:104BD00021F00E94009DF801F6CF82E080936710DB
:104BE00085E292E09093EE1B8093ED1B0E94B19DB5
:104BF00083E080936610ACC06AEF73E081E292E1DB
:104C00000E9415FC892B09F5EAE2F2E084918F01FC
:104C10000F5F1F4F882321F00E94009DF801F6CFFF
:104C200086E594E09093EE1B8093ED1B0E94B19D6E
:104C300010923902109240048091E40D882309F407
:104C400087C081E08093E30D83C062E174E081E27C
:104C500092E10E9415FC892B09F07AC010923F1254
:104C600077C01D8218861C821B8285EF92E09A8392
:104C700089838091360E811103C060E17EE002C01D
:104C80006FE27EE06115710519F06C5F7F4F02C025
:104C900060E070E021E041E252E1CE0105960E9421
:104CA0001EB1882361F18BE1FE013596A3E3BEE0DE
:104CB00001900D928A95E1F72B813C813093320E61
:104CC0002093310E8091840F8A3008F03DC091E02E
:104CD000980F9093840FFFE18F9FC0011124DC0196
:104CE000AE5AB14F4BE1E3E3FEE001900D924A95DD
:104CF000E1F7FC01E25BF14F3383228325C0E4E05E
:104D0000F7E284918F010F5F1F4F882321F00E94EB
:104D1000009DF801F6CFEFE0F2E084918F010F5F84
:104D20001F4F882321F00E94009DF801F6CF01E279
:104D300012E1F80181918F01882319F00E94009DF2
:104D4000F8CF8AE00E94009DCE0101960E9406A441
:104D5000109221128091090180FF07C1E7E8F7E076
:104D600084918F01882311F40C940B1B082E000CE6
:104D7000990B0E9466B30F5F1F4FF8018491F2CF29
:104D80008FE40E9495D581110C940B1B83E40E9443
:104D900095D50C940B1B83E50E9495D5811159C0C4
:104DA0008FE40E9495D5882319F08FE497E007C01F
:104DB00084E50E9495D5882349F087E297E0909397
:104DC000EE1B8093ED1B0E94B19D43C083E40E94C3
:104DD00095D5882319F08EEF96E0F1CF81E50E94FA
:104DE00095D5882319F086ED96E0E9CF88E40E94F6
:104DF00095D58823C9F0E2EDF6E084918F018823F0
:104E000051F0082E000C990B0E9466B30F5F1F4FE4
:104E1000F8018491F4CF8DE090E00E9466B38AE0BF
:104E200090E00E9466B315C08CE40E9495D588235B
:104E300081F0EEECF6E084918F01882361F3082E77
:104E4000000C990B0E9466B30F5F1F4FF80184910D
:104E5000F4CFE6E9F7E084918F01882311F40C94F4
:104E60000B1B082E000C990B0E9466B30F5F1F4F9F
:104E7000F8018491F2CF8091650D8091660D0C94BC
:104E80000B1B83E50E9495D5882309F46EC086EA42
:104E900096E09093EE1B8093ED1B0E94B19DE6E996
:104EA000F7E084918F01882311F40C940B1B082EDA
:104EB000000C990B0E9466B30F5F1F4FF80184919D
:104EC000F2CFE1EAF6E084918F01882351F0082EB9
:104ED000000C990B0E9466B30F5F1F4FF80184917D
:104EE000F4CFECE9F6E084918F01882311F40C945F
:104EF0000B1B082E000C990B0E9466B30F5F1F4F0F
:104F0000F8018491F2CF88E50E9495D5811106C001
:104F100089E50E9495D5882309F485C088E50E941B
:104F200095D5882341F08DE398E09093EE1B809314
:104F3000ED1B0E94B19D89E50E9495D5882341F023
:104F400087E398E09093EE1B8093ED1B0E94B19D48
:104F50008AE50E9495D5882341F081E398E09093FB
:104F6000EE1B8093ED1B0E94B19D8091EC119091FE
:104F7000ED11019664E070E00E94A3FB9093ED11A7
:104F80008093EC118091E8119091E9110196909332
:104F9000E9118093E8111092F0111092EF110C9426
:104FA0008E194091EC115091ED119F012F5F3F4FF1
:104FB0003093F0112093EF1190E6949F9001959F0C
:104FC000300D11242A593F4EE20FF31F82830C94B7
:104FD0008E19109267100E942E996093F6117093AB
:104FE000F7118093F8119093F9118091E40D8823C3
:104FF00019F081E08093E30D81E0809366101092B8
:105000000212E0E5F8E084918F01882311F40C94FA
:105010000B1B082E000C990B0E9466B30F5F1F4FED
:10502000F8018491F2CF8AE50E9495D5811176CF5F
:1050300083E40E9495D5882309F497CF8DE298E008
:105040008ECF86E40E9495D5882309F44DC10E9435
:10505000B0D50E9403FA8B0189E298E09093EE1B91
:105060008093ED1B0E94B19D88E50E9495D5882311
:1050700009F451C00E94B0D52B013C012DEC3CEC51
:105080004CE45EE30E943DF49E012F5F3F4F7901A7
:10509000181674F020E030E0A901C301B2010E94AB
:1050A000E0FA18162CF41F930F938EE198E005C1D7
:1050B0002DEC3CEC4CEC5DEBC301B2010E943DF4E5
:1050C00018167CF020E030E040E85FEBC301B2014D
:1050D0000E94E0FA18162CF41F930F9382E198E0D7
:1050E000ECC01F930F93C301B2010E94FEF97F939E
:1050F0006F9388E098E09F938F93FF92EF920E94C6
:105100000FF40FB6F894DEBF0FBECDBFCE010196EF
:105110000E948C9DDFC089E50E9495D5882309F403
:1051200041C00E94B0D52B013C012DEC3CEC4CE47D
:105130005EE30E943DF4FE0131967F01181674F083
:1051400020E030E0A901C301B2010E94E0FA181684
:105150002CF41F930F938DEF97E0AFC02DEC3CEC38
:105160004CEC5DEBC301B2010E943DF418167CF0DB
:1051700020E030E040E85FEBC301B2010E94E0FABA
:1051800018162CF41F930F9381EF97E096C01F938E
:105190000F93C301B2010E94FEF97F936F9387EED4
:1051A00097E0A9CF8AE50E9495D5882309F441C0EC
:1051B0000E94B0D52B013C012DEC3CEC4CE45EE3AD
:1051C0000E943DF4FE0131967F01181674F020E034
:1051D00030E0A901C301B2010E94E0FA18162CF4D4
:1051E0001F930F938CED97E068C02DEC3CEC4CECDA
:1051F0005DEBC301B2010E943DF418167CF020E083
:1052000030E040E85FEBC301B2010E94E0FA1816FB
:105210002CF41F930F9380ED97E04FC01F930F93D3
:10522000C301B2010E94FEF97F936F9386EC97E071
:1052300062CF85E40E9495D5882309F44BC00E9473
:10524000B0D52B013C012DEC3CEC4CE45EE30E941C
:105250003DF4FE0131967F01181674F020E030E035
:10526000A901C301B2010E94E0FA18162CF41F93A1
:105270000F938BEB97E021C02DEC3CEC4CEC5DEBFD
:10528000C301B2010E943DF418167CF020E030E02A
:1052900040E85FEBC301B2010E94E0FA18162CF45B
:1052A0001F930F938FEA97E008C0C301B2010E94D9
:1052B000FEF97F936F9384EA97E09F938F93FF9219
:1052C000EF920E940FF40F900F900F900F900F909D
:1052D0000F901CCF80EA97E09093EE1B8093ED1B1C
:1052E0000E94B19D0C940B1B00E010E0B5CE20E0B5
:1052F00030E040E251E460915B0470915C04809185
:105300005D0490915E040E943DF487FF08C089E926
:1053100097E09093EE1B8093ED1B0E94B19D82E37A
:1053200090E090934C0480934B040E944F5F88EC74
:1053300090E00E94E75FE6E9F7E084918F0188231F
:1053400011F40C940B1B082E000C990B0E9466B3F1
:105350000F5F1F4FF8018491F2CF20E030E040E270
:1053600051E460915B0470915C0480915D049091C4
:105370005E040E943DF487FF08C08FE897E0909399
:10538000EE1B8093ED1B0E94B19D80E590E0909311
:105390004C0480934B040E944F5F80EF90E00E948A
:1053A000E75FE6E9F7E084918F01882311F40C941C
:1053B0000B1B082E000C990B0E9466B30F5F1F4F4A
:1053C000F8018491F2CF80E090E00E94E75F1092B4
:1053D0004C0410924B040E944F5FEBE8F7E084917D
:1053E0008F01882311F40C940B1B082E000C990BD1
:1053F0000E9466B30F5F1F4FF8018491F2CFA7960A
:105400000FB6F894DEBF0FBECDBFDF91CF911F91D5
:105410000F91FF90EF90DF90CF90BF90AF909F9053
:105420008F907F906F905F904F903F902F90089556
:105430002F923F924F925F926F927F928F929F92A4
:10544000AF92BF92CF92DF92EF92FF920F931F9392
:10545000CF93DF93CDB7DEB7C354D1090FB6F8941D
:10546000DEBF0FBECDBF11E01093FC1B80918F13E8
:105470008D3409F459C5843511F40C94753E873484
:1054800011F00C94C13E80918D1390918E138B314D
:10549000910509F403C2A4F48430910534F48230F8
:1054A000910594F597FF29C03BC58430910509F417
:1054B000BFC14A9709F034C50E9475460C94C33E9B
:1054C0008A32910509F421C444F48C31910509F420
:1054D00015C24D9709F417C223C58B35910509F400
:1054E0009FC48C35910509F49FC48A35910509F054
:1054F00017C5109278040C94C33E80911902811153
:105500000C94C83E0C94C33E20911902222311F43E
:105510000C94C33E11E0029709F010E00E94DD797F
:1055200019821A821B821C821D821E821F8218868B
:1055300082E50E94D844882309F42AC10E94584475
:105540004B015C0120E030E0A9010E943DF488237A
:1055500009F434C1409153045091540460915504AE
:105560007091560448A759A76AA77BA76091570472
:10557000709158048091590490915A046CA77DA7AA
:105580008EA79FA780914C1C90914D1CA0914E1C02
:10559000B0914F1C88AB99ABAAABBBAB4091501CF0
:1055A0005091511C6091521C7091531C4CAB5DABDF
:1055B0006EAB7FAB9C01AD0168A579A58AA59BA5C3
:1055C0000E943DF481110DC02CA93DA94EA95FA9EF
:1055D0006CA57DA58EA59FA50E943DF4882309F4A6
:1055E000EDC020E030E0A901C501B4010E943DF406
:1055F000881F8827881F181749F060E070E080E84E
:105600009FEB6CAF7DAF8EAF9FAF08C080E090E0A6
:10561000A0E8BFE38CAF9DAFAEAFBFAF28A539A563
:105620004AA55BA568A979A98AA99BA90E94B9F88E
:1056300068AF79AF8AAF9BAF2CA53DA54EA55FA5FE
:105640006CA97DA98EA99FA90E94B9F86B017C0164
:1056500028AD39AD4AAD5BADCA01B9010E94A2F4D3
:105660002B013C01A7019601C701B6010E94A2F4DB
:105670009B01AC01C301B2010E94BAF80E9425FB54
:105680002B013C0120E030E040E05FE30E94A2F407
:1056900024966CAF7DAF8EAF9FAF2497A501940188
:1056A000C501B4010E94A2F44B015C0124962CAD0B
:1056B0003DAD4EAD5FAD2497CA01B9010E94A2F481
:1056C0009B01AC01C501B4010E94B9F80E9425FB01
:1056D0002CAD3DAD4EAD5FAD0E94A2F44B015C011F
:1056E000C701B6019058A30192010E9496F9A50145
:1056F00094010E94A2F46B017C0128A939A94AA94E
:105700005BA968A579A58AA59BA50E94BAF820E0A7
:1057100030E040E05FE30E94A2F49B01AC01C701CE
:10572000B6010E94BAF828A539A54AA55BA50E9432
:10573000B9F869837A838B839C832CA93DA94EA9F0
:105740005FA96CA57DA58EA59FA50E94BAF820E053
:1057500030E040E05FE30E94A2F46B017C01A30112
:10576000920168AD79AD8AAD9BAD0E9496F9A50115
:1057700094010E94A2F49B01AC01C701B6010E94F2
:10578000BAF82CA53DA54EA55FA50E94B9F812C098
:1057900089E40E94D844882331F00E9458446983E8
:1057A0007A838B839C838AE40E94D844882331F0D7
:1057B0000E9458446D837E838F83988720E030E079
:1057C000A90169817A818B819C810E943DF48111BC
:1057D0000EC020E030E0A9016D817E818F81988527
:1057E0000E943DF4811103C0EFEEF6E20DC0412F9F
:1057F000BE016F5F7F4F8CE49CE10E9422B70C9446
:10580000C33E0E94009DF80184918F010F5F1F4FDE
:105810008111F7CFE7E2F9E084918F010F5F1F4F0D
:10582000882311F40C94C33E0E94009DF801F4CF2C
:1058300080E50E94D844882329F00E940E9C6B01C9
:105840007C0103C0C12CD12C760183E50E94D84491
:10585000882361F00E94584420E030E04AE754E495
:105860000E94A2F40E9403FA6B017C010E94938DB6
:105870000E942E99C60ED71EE81EF91E0E942E9970
:10588000DC01CB018C199D09AE09BF09B7FD02C02F
:105890000C94C33E80E00E946DA4F0CF0E94CBD652
:1058A00081110C94C33E80E090E0A0EAB0E48983CB
:1058B0009A83AB83BC8380E090E0ADE4B3E48D8356
:1058C0009E83AF83B88780E090E0A0EAB1E4898747
:1058D0009A87AB87BC8780E50E94D844882319F05B
:1058E0000E94284401C060E068A3BE016F5F7F4F43
:1058F000CE0180960E9413CC0C94C33E80E00E949F
:10590000EF780C94C33E83E50E94D844882321F1AC
:105910000E943844182F863070F0EDEEF9E0849143
:105920008F010F5F1F4F882311F40C94C33E0E9418
:10593000009DF801F4CF833009F44AC130F481307E
:1059400091F1823009F43FC008C0843009F4ABC142
:10595000853009F4B8C101C010E00E94B5998111E9
:1059600003C0EDECF9E013C08091171C882319F0F7
:1059700069E174E002C06DE174E085EC99E00E9499
:1059800038C28AE00E94009D0E94A9CCA2C18491E5
:105990007F019FEFE91AF90A882309F49AC10E944E
:1059A000009DF701F4CF0E945CCD1092030210928B
:1059B00002028AEB99E09093EE1B8093ED1B0E940C
:1059C000B19D0C94C33E809102029091030297FF17
:1059D0000EC0E1E9F9E084918F010F5F1F4F88232A
:1059E00011F40C94C33E0E94009DF801F4CF00977F
:1059F000A1F480913A028093790419821A821B8261
:105A00001C8218A219A21AA21BA2BE016F5F7F4FAF
:105A1000CE0180960E94699B27C0815065E00E945C
:105A200082FB80FF03C024E0291B922FA5E09A028D
:105A3000F0011124E80FF11D87FDFA95EE0FFF1F0D
:105A4000EE0FFF1FE659F44E80915B0490915C04C9
:105A5000A0915D04B0915E0480839183A283B3839F
:105A60008091790480933A0280910202909103021E
:105A7000893191050CF067C010923A029C012F5FAA
:105A80003F4F309303022093020265E00E9482FBA5
:105A900080FF03C024E0291B922F40915B045091AA
:105AA0005C0460915D0470915E0448A359A36AA3ED
:105AB0007BA319821A821B821C82B4E08B029001A4
:105AC0001124F901E556F24F4F01208131814281C5
:105AD0005381F4E09F02C0011124BC016155724F53
